:100000000C9434000C943E000C943E000C943E0082
:100010000C943E000C943E000C943E000C943E0068
:100020000C943E000C943E000C943E000C943E0058
:100030000C943E000C943E000C943E000C943E0048
:100040000C943E000C943E000C943E000C943E0038
:100050000C943E000C943E000C943E000C943E0028
:100060000C943E000C943E0011241FBECFEFD8E04C
:10007000DEBFCDBF0E9444000C94F6000C9400003B
:100080000E944B00789408950E94400083ED9FEFFA
:100090000E948800FFCF84B18F6084B985B1807FD2
:1000A00085B9089583E085B98FE19EE40197F1F762
:1000B00000C00000089586E085B98FE19EE40197B5
:1000C000F1F700C0000008958CE085B98FE19EE44F
:1000D0000197F1F700C00000089589E085B98FE12C
:1000E0009EE40197F1F700C0000008950E946D00A2
:1000F0000E9464000E945B000E94520008950E94CA
:1001000052000E945B000E9464000E946D000895EE
:100110000F931F93CF93DF939C0121503109243B10
:10012000310558F49C01992314F42D5F3F4F359508
:10013000279535952795D22F45C09C01255B310920
:10014000243B310570F4AC01445B51099A0112F46F
:100150002D5F3F4F3595279535952795DDE2D20FD9
:1001600031C09C012C543F4F243B310590F4AC012D
:10017000992324F444275527481B590B9A015523EA
:1001800014F42D5F3F4F3595279535952795D22F40
:1001900019C09C0129593E4F233B310598F4AC010D
:1001A000992324F444275527481B590B445B5109D4
:1001B0009A0112F42D5F3F4F359527953595279578
:1001C000DDE2D20FDD2369F08C01C0E010161106CC
:1001D0001CF40E947F0002C00E947600CF5FDC13F7
:1001E000F5CFDF91CF911F910F910895F894FFCF34
:00000001FF
