:100000000C9434000C9451000C9451000C94510049
:100010000C9451000C9451000C9451000C9451001C
:100020000C9451000C9451000C9451000C9451000C
:100030000C9451000C9451000C9451000C945100FC
:100040000C9451000C9451000C94D6000C94AC000C
:100050000C9451000C9451000C9451000C945100DC
:100060000C9451000C94510011241FBECFEFD8E026
:10007000DEBFCDBF11E0A0E0B1E0E0EFF1E002C0F3
:1000800005900D92A430B107D9F721E0A4E0B1E0CA
:1000900001C01D92A832B207E1F70E9457000C94EC
:1000A000F6000C9400000E947000789408950E945D
:1000B00053002FEF83ED90E3215080409040E1F713
:1000C00000C0000080E091E00E949600F2CF109204
:1000D0000701109206011092050110920401089583
:1000E0001092C50083E38093C400E1ECF0E08081CE
:1000F00088698083E2ECF0E08081866080830E94E2
:1001000067000895E0910601EF5FEF70909107019D
:10011000E917E1F3E0930601F0E0E85EFE4F80832B
:10012000E1ECF0E080818062808308950F931F935B
:10013000CF93FC018081882359F08F01C0E00E9499
:100140008200CF5FF801EC0FF11D80818111F7CFA4
:10015000CF911F910F9108951F920F920FB60F929A
:1001600011248F939F93EF93FF93909107018091B8
:100170000601981769F0E0910701EF5FEF70E093D7
:100180000701F0E0E85EFE4F80818093C60005C065
:10019000E1ECF0E080818F7D8083FF91EF919F9172
:1001A0008F910F900FBE0F901F9018951F920F9276
:1001B0000FB60F9211248F939F93EF93FF9380912B
:1001C000C600E0910401EF5FEF70E09304019091AD
:1001D0000501F0E0E85FFE4F8083FF91EF919F9172
:1001E0008F910F900FBE0F901F901895F894FFCF2E
:0401F00074617500C1
:00000001FF
