:100000000C9434000C9451000C9451000C94510049
:100010000C9451000C9451000C9451000C9451001C
:100020000C9451000C9451000C9451000C9451000C
:100030000C9451000C9451000C9451000C945100FC
:100040000C9451000C9451000C9451000C945100EC
:100050000C9451000C9475000C9451000C945100B8
:100060000C9451000C94510011241FBECFEFD8E026
:10007000DEBFCDBF11E0A0E0B1E0E0ECF3E002C0F4
:1000800005900D92AA30B107D9F721E0AAE0B1E0BE
:1000900001C01D92AD30B207E1F70E944D010C94F2
:1000A000DE010C940000ECE7F0E080818064808346
:1000B000EAE7F0E0808187608083EEE7F0E080810E
:1000C000816080830895ECE7F0E09081987F892B30
:1000D0008083EAE7F0E08081886E80838FE991E099
:1000E0000197F1F700C0000008951F920F920FB61C
:1000F0000F9211242F938F939F938091780090E01B
:1001000090930B0180930A012091790080910A015C
:1001100090910B01922B90930B0180930A019F9178
:100120008F912F910F900FBE0F901F9018958AB14D
:100130008F708AB98E608AB98BB18F708BB95A9AD9
:1001400059985B9A0000000089B180930C015B987C
:100150000000000080910C01807F80930C015B9A6D
:100160000000000089B15B9882958F7090910C011E
:10017000892B80930C018AB1806F8AB908950E94FF
:10018000970080910C018823D4F308955A98611147
:1001900002C0599801C0599A9BB19F709BB99BB1FD
:1001A000282F207F922B9BB95B9A00000000000053
:1001B0005B98000000009BB19F709BB99BB182953A
:1001C000807F892B8BB95B9A0000000000005B9850
:1001D0000E94BF00089560E00E94C600089561E09B
:1001E0000E94C6000895CF93DF93EC018881882395
:1001F00031F021960E94EF0089918111FBCFDF91B0
:10020000CF91089590E4699F800D112481548068F6
:100210000E94EB0008958BB95B9A0000000000007B
:100220005B9808958FEF99EF0197F1F700C00000F8
:1002300080E30E940B018FE496E40197F1F700C080
:10024000000080E30E940B018BEC91E00197F1F735
:1002500000C0000080E30E940B010E94BF0080E20A
:100260000E940B010E94BF0088E20E94EB0084E123
:100270000E94EB008FE00E94EB0086E00E94EB0002
:1002800080E10E94EB0081E00E94EB0008950E9453
:1002900012010E945300789408950E94470180E063
:1002A0000E94630008EE13E00F2EF4E6DF2EF02D1F
:1002B000C0910A01D0910B01D370CE01880F991F14
:1002C000880F991FC80FD91F61E081E00E940201C9
:1002D00080E091E00E94F3009E01369527953695C7
:1002E000279536952795A5ECB0E20E94CF017C01B9
:1002F000F694E794F694E794F694E794F694E794EA
:1003000080E38E0D0E94EF008EE20E94EF00E09EDF
:10031000C001E19E900DF09E900D1124C81BD90BD9
:100320009E013695279536952795ABE7B4E10E9457
:10033000CF017C01F694E79480E38E0D0E94EF00DC
:10034000DE9CC001DF9C900D1124C81BD90B9E01BF
:10035000ADECBCEC0E94CF017C01F694E794F694DE
:10036000E794F694E79480E38E0D0E94EF00C701B6
:10037000880F991FEE0CFF1CEE0CFF1CEE0CFF1CEF
:10038000E80EF91ECE018E199F09805D0E94EF00D4
:100390008FE39CE90197F1F700C0000089CFA29F8D
:1003A000B001B39FC001A39F700D811D1124911D49
:1003B000B29F700D811D1124911D0895F894FFCFF7
:0A03C000566F6C746167653A200007
:00000001FF
