S02B000054656D706572617475726520616E642068756D69646974792073656E736F722044485431312E737237
S11300000C9434000C9451000C9451000C94510045
S11300100C9451000C9451000C9451000C94510018
S11300200C9451000C9451000C9451000C94510008
S11300300C9451000C9451000C9451000C945100F8
S11300400C9451000C9451000C9451000C945100E8
S11300500C9451000C9451000C9451000C945100D8
S11300600C9451000C94510011241FBECFEFD8E022
S1130070DEBFCDBF11E0A0E0B1E0E2E0F4E002C0F9
S113008005900D92AE31B107D9F721E0AEE1B1E0B0
S113009001C01D92A432B207E1F70E949E010C94A4
S11300A0FF010C9400002FE38DE093E02150804089
S11300B09040E1F700C000000895409A389A87E81C
S11300C093E10197F1F700C00000409883E991E1C2
S11300D00197F1F700C00000409A38989AE09A9589
S11300E0F1F708958DE08A95F1F7000030990CC07E
S11300F08AE18A95F1F700C0309B08C08DE08A95AB
S1130100F1F700008FEF089580E0089580E00895EE
S1130110CF93DF93F894AFE1B1E0C4E2D1E041E0E2
S113012050E0FD011C9287E090E0309BFECF2AE076
S11301302A95F1F7309B0CC060819A01082E02C009
S1130140220F331F0A94E2F7262B208326B10BC01B
S11301509A01082E02C0220F331F0A94E2F7209559
S1130160308123232083019700F71196AC17BD0734
S1130170C1F67894EFE1F1E08081218130E0280F2D
S1130180311D8281280F311D8381280F311D448147
S113019050E081E02417350709F080E08195309B19
S11301A0FECFDF91CF9108950E945D000E947200FE
S11301B0882361F00E948800882321F080E38093E3
S11301C00001089582E380930001089581E3809300
S11301D0000108958AB18F708AB98E608AB98BB193
S11301E08F708BB95A9A59985B9A0000000089B1B4
S11301F080931E015B980000000080911E01807FA7
S113020080931E015B9A0000000089B15B9882957F
S11302108F7090911E01892B80931E018AB1806F8B
S11302208AB908950E94EA0080911E018823D4F3BC
S113023008955A98611102C0599801C0599A9BB106
S11302409F709BB99BB1282F207F922B9BB95B9AFF
S11302500000000000005B98000000009BB19F704C
S11302609BB99BB18295807F892B8BB95B9A0000E7
S1130270000000005B980E941201089560E00E9453
S11302801901089561E00E9419010895CF93DF9345
S1130290EC018881882331F021960E9442018991E2
S11302A08111FBCFDF91CF91089590E4699F800D78
S11302B01124815480680E943E0108958BB95B9A91
S11302C00000000000005B9808958FE99FE001970B
S11302D0F1F700C0000080E30E945E0184E694E030
S11302E00197F1F700C0000080E30E945E0196E2EE
S11302F09A95F1F7000080E30E945E010E941201CA
S113030080E20E945E010E94120188E20E943E0186
S113031084E10E943E018FE00E943E0186E00E943B
S11303203E0180E10E943E0181E00E943E01089569
S11303300E9465010E945300789408950E949801D8
S1130340CFE1D1E01DEC0E94D40061E081E00E9485
S1130350550181E091E00E9446018A81819F812DAF
S11303601124869586958695805D0E9442018A8136
S1130370819F912D1124969596959695990F292FE5
S1130380220F220F920F891B805D0E9442018FE091
S113039091E00E94460162E081E00E94550182E101
S11303A091E00E9446018881819F812D11248695C8
S11303B086958695805D0E9442018881819F912D5A
S11303C01124969596959695990F292F220F220F11
S11303D0920F891B805D0E94420185E20E944201C6
S11303E062E08FE00E945501809100010E94420169
S11303F087EA91E60197F1F700C00000A4CFF894D2
S1050400FFCF28
S11304023054656D70657261747572653A2000B01E
S1110412430048756D69646974793A200000EE
S9030000FC
