S01600004C43445F4E6F6B69615F353131302E73726563C4
S11300000C94D0000C94ED000C94ED000C94ED00D5
S11300100C94ED000C94ED000C94ED000C94ED00A8
S11300200C94ED000C94ED000C94ED000C94ED0098
S11300300C94ED000C94ED000C94ED000C94ED0088
S11300400C94ED000C9456020C94ED000C94ED000D
S11300500C94ED000C94ED000C94ED000C94ED0068
S11300600C94ED000C94ED000000008080808080F2
S113007080000000000001030303030303010000E8
S1130080000000000000000000000000000000006C
S113009000C0C0000000000000000286868686863C
S11300A086020000000081C3C3C3C3C3C381000030
S11300B000FC7A0606060606067AFC00007EBCC032
S11300C0C0C0C0C0C0BC7E00000000000000000032
S11300D00078FC000000000000000000003C7E00EE
S11300E00000028686868686867AFC00007EBDC372
S11300F0C3C3C3C3C381000000000286868686860C
S1130100867AFC00000081C3C3C3C3C3C3BD7E00A1
S113011000FC7880808080808078FC0000000103EF
S113012003030303033D7E0000FC7A8686868686ED
S113013086020000000081C3C3C3C3C3C3BD7E00E5
S113014000FC7A868686868686020000007EBDC311
S1130150C3C3C3C3C3BD7E00000002060606060671
S1130160067AFC000000000000000000003C7E0055
S113017000FC7A8686868686867AFC00007EBDC36D
S1130180C3C3C3C3C3BD7E0000FC7A86868686864D
S1130190867AFC00000081C3C3C3C3C3C3BD7E0011
S11301A011241FBECFEFD8E0DEBFCDBF11E0A0E029
S11301B0B1E0E8E0F5E002C005900D92AA30B10785
S11301C0D9F721E0AAE0B1E001C01D92AE38B20730
S11301D0E1F70E942B020C9482020C9400002998EF
S11301E08FE39CE90197F1F700C00000299A089574
S11301F0662311F0289A01C028982A980E94510277
S11302002A9A089560E00E94F800089561E00E942F
S1130210F8000895CF93DF93C8EFD1E080E00E9407
S113022006012197D9F7DF91CF91089584B18364B2
S113023084B9299A2A9A0E94EF0081E20E9402015D
S113024080E90E94020187E00E94020181E10E948C
S1130250020180E20E9402018CE00E9402010E94DD
S11302600A010895CF93C62F2A9880680E9402013C
S11302708C2F80640E9402012A9ACF91089544230E
S1130280C9F0962F969596959695E82FF0E084E51B
S1130290989FE00DF11D1124E55FFE4F677081E02A
S11302A090E002C0880F991F6A95E2F79281892B2A
S11302B082830895962F969596959695E82FF0E06B
S11302C084E5989FE00DF11D1124E55FFE4F6770F2
S11302D081E090E002C0880F991F6A95E2F780954B
S11302E09281892382830895BF92CF92DF92EF9205
S11302F0FF920F931F93CF93DF93082E000C990B5B
S11303006C01CC0CDD1C8C0D9D1D880F991F880F72
S1130310991F880F991F9C01245C334069016894DC
S1130320BB24B1F80BE011E0F8018081883408F0B7
S113033057C09181903108F453C0845F80839051F9
S113034091834EC0F701849180930A01C0E0D0E00C
S113035080910A0190E00C2E02C0959587950A942D
S1130360E2F780FF0AC0F801618181E0860F818392
S113037041E080810E943F0109C0F801618181E070
S1130380860F818340E080810E943F012196C8301E
S1130390D105F1F6F801808191E0980F9083918165
S11303A028EF290F2183FFEFEF1AFF0ACE14DF0491
S11303B049F68B50F80180839183BA94FCE0CF0E08
S11303C0D11CB110B1CF843580F010920B01905F35
S11303D0903318F490930C0108C010920C0105C0DE
S11303E076012CE0E21AF108ADCFDF91CF911F9195
S11303F00F91FF90EF90DF90CF90BF900895CF932F
S1130400DF93EC018881882331F021960E947401E6
S113041089918111FBCFDF91CF9108950F931F93A1
S1130420CF93DF9360E080E00E943201CDE0D1E021
S113043005E013E089910E940601C017D107D1F7A6
S1130440DF91CF911F910F9108950E943D020E9468
S11304501601789408950E94250281E091E00E949B
S1130460FF010E940E022FEF89E698E1215080409F
S11304709040E1F700C00000FFCFCF93DF931F92BD
S1130480CDB7DEB784B18C6284B924988CB581650C
S11304908CBD8DB589838EB589830F90DF91CF9103
S11304A008958EBD0DB407FEFDCF08951F920F92DF
S11304B00FB60F9211248F93EF93FF93E0910D01E8
S11304C0F0E0E25BFE4F8081882361F0E0910D0152
S11304D081E08E0F80930D01F0E0E25BFE4F80819E
S11304E08EBD08C08CB58F778CBD81E080930001F0
S11304F010920D01FF91EF918F910F900FBE0F900D
S10B05001F901895F894FFCF39
S10D05080131322E34333136320053
S9030000FC
