S00B00004932432E737265635B
S11300000C9434000C9446000C9446000C94460066
S11300100C9446000C9446000C9446000C94460044
S11300200C9446000C9446000C9446000C94460034
S11300300C9446000C9446000C9446000C94460024
S11300400C9446000C9446000C9446000C94460014
S11300500C9446000C9446000C9446000C94460004
S11300600C947F000C94460011241FBECFEFD8E0FF
S1130070DEBFCDBF21E0A0E0B1E001C01D92A531FB
S1130080B207E1F70E941A010C943F010C9400009E
S113009087B18F7C87B988B1806388B90895CF927E
S11300A0DF92EF92FF92CF936B017C01C42F0E94E9
S11300B0480060E074E284EF90E0A70196010E949A
S11300C01D01CA01B90160517109810991094C2FBF
S11300D050E09A01220F331F032E000C440B550BE2
S11300E00E941D012093B8001092B90084E080930F
S11300F0BC00CF91FF90EF90DF90CF9008951F92B6
S11301000F920FB60F9211248F939F93EF93FF9347
S11301108091B900887F803309F444C088F4803129
S113012011F130F4882309F46CC08830E1F070C018
S11301308032C1F18832C9F0883109F069C015C034
S1130140883409F451C028F4883381F18034F1F102
S11301505FC0883509F44CC0883F09F456C0803527
S113016009F056C027C010920001E091000180916F
S11301700101E81770F481E08E0F80930001F0E034
S1130180E55FFE4F80818093BB0085E88093BC00CF
S11301903FC08091140181608093140184E98093AD
S11301A0BC0036C085EA8093BC0032C085EA8093E7
S11301B0BC002EC0E091000181E08E0F809300010D
S11301C0F0E08091BB00EE5FFE4F808390910001D0
S11301D080910101981720F485EC8093BC0018C02D
S11301E085E88093BC0014C084E98093BC0010C0EF
S11301F08091140181608093140184E98093BC0090
S113020007C085E98093BC0003C084E08093BC00F0
S1130210FF91EF919F918F910F900FBE0F901F90C0
S1130220189541E060EA76E881E090E00E944F0092
S1130230789408950E941101FFCFA1E21A2EAA1BFF
S1130240BB1BFD010DC0AA1FBB1FEE1FFF1FA21782
S1130250B307E407F50720F0A21BB30BE40BF50B7F
S1130260661F771F881F991F1A9469F76095709508
S1130270809590959B01AC01BD01CF010895F89440
S1050280FFCFAA
S9030000FC
