:1000000012C02CC02BC02AC029C028C027C026C0BF
:1000100025C024C016C122C021C020C01FC01EC0E0
:100020001DC01CC01BC011241FBECFE5D4E0DEBF25
:10003000CDBF10E0A0E6B0E0EAE9F2E002C0059032
:100040000D92A037B107D9F720E0A0E7B0E001C0DA
:100050001D92A23FB207E1F7A7D01DC1D1CF81B356
:100060008F7081BB8E6081BB82B38F7082BB929A8E
:100070009198939A0000000080B380937000939849
:100080000000000080917000807F80937000939A40
:100090000000000080B3939882958F70909170005B
:1000A000892B8093700081B3806F81BB0895D7DF67
:1000B000809170008823DCF308959298611102C04A
:1000C000919801C0919A92B39F7092BB92B3282FDE
:1000D000207F922B92BB939A00000000000093981F
:1000E0000000000092B39F7092BB92B38295807F14
:1000F000892B82BB939A0000000000009398D7DF01
:10010000089560E0DADF089561E0D7DF0895CF93C6
:10011000DF93EC018881882329F02196F5DF89910E
:100120008111FCCFDF91CF91089590E4699F800DFC
:10013000112481548068E5DF089582BB939A000002
:1001400000000000939808958FEF9CE70197F1F766
:1001500000C0000080E3F1DF87E293E20197F1F74E
:1001600000C0000080E3E9DF85EE90E00197F1F741
:1001700000C0000080E3E1DF9ADF80E2DEDF97DF8E
:1001800088E2BFDF84E1BDDF8FE0BBDF86E0B9DF5F
:1001900080E1B7DF81E0B5DF0895889A0895FDDF3B
:1001A000D3DF16D078940895FADF2FEF89E698E12F
:1001B000215080409040E1F700C0000081E690E0CF
:1001C0001AD061E081E0B1DF82E790E0A0DFEDCFFF
:1001D000CF93DF931F92CDB7DEB787B38C6287BB17
:1001E0008DB1836D8DB98EB189838FB189830F9065
:1001F000DF91CF910895CF93DF931F92CDB7DEB7F4
:10020000DC012C91222369F090E0E92FF0E0EE541C
:10021000FF4F20839F5FFD01E90FF11D2081211118
:10022000F4CF10927100109260006F9A8EB18983A2
:100230008FB18983198289818FB90F90DF91CF9116
:1002400008951F920F920FB60F9211248F93EF9380
:10025000FF93E0917100F0E0EE54FF4F808188231E
:1002600061F0E091710081E08E0F80937100F0E009
:10027000EE54FF4F80818FB906C06F9881E0809364
:10028000600010927100FF91EF918F910F900FBE5F
:0A0290000F901F901895F894FFCF0F
:10029A000148656C6C6F2C204769744875622100AF
:00000001FF
