S01700004C434431363032206D6567613332382E737265631A
S11300000C9434000C9451000C9451000C94510045
S11300100C9451000C9451000C9451000C94510018
S11300200C9451000C9451000C9451000C94510008
S11300300C9451000C9451000C9451000C945100F8
S11300400C9451000C9451000C9451000C945100E8
S11300500C9451000C9451000C9451000C945100D8
S11300600C9451000C94510011241FBECFEFD8E022
S1130070DEBFCDBF11E0A0E0B1E0E4E2F3E002C0F6
S113008005900D92AC30B107D9F721E0ACE0B1E0B6
S113009001C01D92AD30B207E1F70E9443010C94F8
S11300A090010C9400008AB18F708AB98E608AB96D
S11300B08BB18F708BB95A9A5998F8945B9A000057
S11300C0000089B180930C015B98000000008091CE
S11300D00C01807F80930C015B9A0000000089B1C1
S11300E05B98789482958F7090910C01892B809302
S11300F00C018AB1806F8AB908950E9453008091DF
S11301000C018823D4F308955A98611102C05998B8
S113011001C0599AF8949BB19F709BB99BB1282F49
S1130120207F922B9BB95B9A0000000000005B9833
S1130130000000009BB19F709BB99BB18295807FAA
S1130140892B8BB95B9A0000000000005B987894BF
S11301500E947D00089560E00E948400089561E09B
S11301600E9484000895CF93DF93EC018881882353
S113017031F021960E94AF0089918111FBCFDF916C
S1130180CF910895CF93DF93EC01992344F48DE24A
S11301900E94AF00DD231CF4D195C195D109CE0195
S11301A068EE73E00E946801EC0180E3860F0E9410
S11301B0AF00CE0164E670E00E946801EC0180E3C8
S11301C0860F0E94AF00CE016AE070E00E946801D1
S11301D0C82F80E3860F0E94AF0080E38C0F0E943B
S11301E0AF00DF91CF91089590E4699F800D1124B1
S11301F0815480680E94AB00089580680E94AB001F
S113020008958BB95B9A0000000000005B98089584
S1130210F8948FEF99EF0197F1F700C0000080E3A5
S11302200E9401018FE496E40197F1F700C00000F9
S113023080E30E9401018BEC91E00197F1F700C08B
S1130240000080E30E9401010E947D0080E20E9480
S113025001010E947D0088E20E94AB00789484E151
S11302600E94AB008FE00E94AB0086E00E94AB00CE
S113027082E00E94AB0081E00E94AB0008950E94DE
S1130280080178940895CF93DF93CDB7DEB72C9708
S11302900FB6F894DEBF0FBECDBF0E943F0182E0CF
S11302A00E94FD008CE0E0E0F1E0DE011196019097
S11302B00D928A95E1F7CE0101960E94B30062E0A7
S11302C081E00E94F4008FE991EE0E94C200FFCF0A
S11302D097FB072E16F4009407D077FD09D00E94EF
S11302E07C0107FC05D03EF4909581959F4F0895BD
S11302F0709561957F4F0895AA1BBB1B51E107C000
S1130300AA1FBB1FA617B70710F0A61BB70B881FA1
S1130310991F5A95A9F780959095BC01CD01089530
S1070320F894FFCF7B
S10F0324506F696E74657273203A2900F2
S9030000FC
