:100000000C944A010C9467010C9467010C946701ED
:100010000C9467010C9467010C9467010C946701C0
:100020000C9467010C9467010C9467010C946701B0
:100030000C9467010C9467010C9467010C946701A0
:100040000C9467010C940B060C9467010C946701E7
:100050000C9467010C9467010C9467010C94670180
:100060000C94A3020C9467010C9467010C94670133
:100070000C9467010C9467010C9467010C94670160
:100080000C9467010C9467010C9467010C94670150
:100090000C9467010C9467010C9467010C94670140
:1000A0000C9467010C9467010C9467010C94670130
:1000B0000C946701000000000000005F00000007D2
:1000C000000700147F147F14242A7F2A12231308A8
:1000D000646236495522500005030000001C22418D
:1000E000000041221C0014083E081408083E0808BD
:1000F0000050300000080808080800606000002078
:10010000100804023E5149453E00427F40004261D2
:100110005149462141454B311814127F102745455E
:1001200045393C4A49493001710905033649494975
:1001300036064949291E00363600000056360000B2
:10014000081422410014141414140041221408024B
:1001500001510906324979413E7E1111117E7F49D4
:100160004949363E414141227F4141221C7F494954
:1001700049417F090909013E4149497A7F08080838
:100180007F00417F41002040413F017F0814224110
:100190007F404040407F020C027F7F0408107F3E7A
:1001A0004141413E7F090909063E4151215E7F09D7
:1001B000192946464949493101017F01013F404023
:1001C000403F1F2040201F3F4038403F6314081429
:1001D0006307087008076151494543007F414100AA
:1001E00002040810200041417F0004020102044083
:1001F00040404040000102040020545454787F489D
:100200004444383844444420384444487F385454A3
:100210005418087E0901020C5252523E7F08040411
:100220007800447D40002040443D007F1028440079
:1002300000417F40007C041804787C08040478386E
:10024000444444387C14141408081414187C7C08A2
:100250000404084854545420043F4440203C404087
:10026000207C1C2040201C3C4030403C442810286E
:10027000440C5050503C4464544C440008364100F7
:1002800000007F00000041360800100808100878C0
:100290004641467811241FBECFEFD8E0DEBFCDBF68
:1002A00011E0A0E0B1E0E4EFFCE002C005900D92A7
:1002B000A231B107D9F721E0A2E1B1E001C01D925E
:1002C000A83BB207E1F70E94DD050C9478060C9478
:1002D0000000982F92959F70990F292F220F220FBF
:1002E000920F8F70890F0895EF92FF921F93CF9313
:1002F000DF937C01142FC0E0D0E080ED8883698318
:1003000062E080E090E00E94620281ED8883612FCC
:1003100080E090E00E946202612FC7010E94840287
:10032000DF91CF911F91FF90EF900895CF93DF93CE
:1003300084E191E0909313018093120148E060E022
:100340000E947401C0911201D091130188810E9412
:1003500069018883C0911201D091130189810E94A3
:1003600069018983C0911201D09113018A810E9491
:1003700069018A838B810E9469018B838C810E9431
:1003800069018C838D810E9469018D838E810E9419
:1003900069018E83DF91CF9108950E94960168E0F4
:1003A0008CE00E94850381E091E00E942804E091A6
:1003B0001201F0911301628170E080E090E00E94F0
:1003C00037048AE30E94C303E0911201F091130104
:1003D000618170E080E090E00E94370460E18CE091
:1003E0000E94850388E091E00E942804E0911201B8
:1003F000F0911301658170E080E090E00E94370485
:100400008EE20E94C303E0911201F0911301648116
:1004100070E080E090E00E9437048EE20E94C30307
:10042000E0911201F0911301668170E080E090E0AC
:100430000E94370468E18CE00E948503E09112017C
:10044000F0911301638170E080E090E00E94370436
:100450000E94B905089587B18F7C87B988B1806300
:1004600088B90895CF92DF92EF92FF92CF936B01FC
:100470007C01C42F0E942B0260E472E48FE090E0C4
:10048000A70196010E943706CA01B901605171099E
:10049000810991094C2F50E09A01220F331F032E3E
:1004A000000C440B550B0E9437062093B8001092A5
:1004B000B90084E08093BC00CF91FF90EF90DF9073
:1004C000CF900895FC01ACEBB0E09C9190FDFDCF86
:1004D00060931C01808180932801808180FD0EC083
:1004E000623060F0319621E030E08191D901A85D61
:1004F000BE4F8C932F5F3F4F2617B8F310923301F6
:1005000085EA8093BC000895DC01ECEBF0E090817B
:1005100090FDFDCF8091330180FF11C0662379F0FB
:1005200091E0292F30E0F901E35EFE4F40812A0F70
:100530003B1FF901319740839F5F691790F78091C6
:100540003301817008951F920F920FB60F921124FC
:100550008F939F93EF93FF938091B900887F8033AF
:1005600009F444C088F4803111F130F4882309F48F
:100570006CC08830E1F070C08032C1F18832C9F0BF
:10058000883109F069C015C0883409F451C028F4D5
:10059000883381F18034F1F15FC0883509F44CC0B3
:1005A000883F09F456C0803509F056C027C0109224
:1005B0001B01E0911B0180911C01E81770F481E0A0
:1005C0008E0F80931B01F0E0E85DFE4F80818093E9
:1005D000BB0085E88093BC003FC0809133018160FF
:1005E0008093330184E98093BC0036C085EA809310
:1005F000BC0032C085EA8093BC002EC0E0911B0194
:1006000081E08E0F80931B01F0E08091BB00E35EE0
:10061000FE4F808390911B0180911C01981720F45C
:1006200085EC8093BC0018C085E88093BC0014C0A2
:1006300084E98093BC0010C0809133018160809375
:10064000330184E98093BC0007C085E98093BC0036
:1006500003C084E08093BC00FF91EF919F918F9144
:100660000F900FBE0F901F901895299883EC99E07A
:100670000197F1F700C00000299A0895662311F050
:10068000289A01C028982A980E9406062A9A089556
:1006900060E00E943E03089561E00E943E030895D9
:1006A000CF93DF93C8EFD1E080E00E944C03219705
:1006B000D9F7DF91CF91089584B1836484B9299AE1
:1006C0002A9A0E94350381E20E94480380E90E9431
:1006D000480387E00E94480381E10E94480380E2CA
:1006E0000E9448038CE00E9448030E945003089532
:1006F000CF93C62F2A9880680E9448038C2F80646D
:100700000E9448032A9ACF910895E5E3F1E080839F
:10071000618308954423C9F0962F969596959695F2
:10072000E82FF0E084E5989FE00DF11D1124EB5CCB
:10073000FE4F677081E090E002C0880F991F6A95B4
:10074000E2F79281892B82830895962F969596954C
:100750009695E82FF0E084E5989FE00DF11D1124B7
:10076000EB5CFE4F677081E090E002C0880F991F3C
:100770006A95E2F78095928189238283089541E00A
:100780000E948A030895DF92EF92FF920F931F93C6
:10079000CF93DF93082E000C990B80977C01EE0C11
:1007A000FF1CEE0CFF1C8E0D9F1D9C012C543F4F17
:1007B00079010F2EF5E0DF2EF02D05E311E0F701B2
:1007C000849180933401C0E0D0E08091340190E0C6
:1007D0000C2E02C0959587950A94E2F780FF0AC017
:1007E000F801618181E0860F818341E080810E9470
:1007F0008A0309C0F801618181E0860F818340E0AE
:1008000080810E948A032196C830D105F1F6F80153
:1008100080818F5F8083918128EF290F2183DA9473
:10082000FFEFEF1AFF0AD110CACF803548F01092BF
:100830003501903318F49093360102C010923601BE
:10084000DF91CF911F910F91FF90EF90DF9008956E
:10085000CF93DF93EC018881882331F021960E94A9
:10086000C30389918111FBCFDF91CF910895CF927E
:10087000DF92EF92FF92CF936B017C01992374F486
:100880008DE20E94C303C601992324F48827992787
:100890008C199D096C01990FEE08FF08D701C6015C
:1008A000B701A6014A505109610971094A3551053C
:1008B0006105710548F021E03AE0C316D104E10476
:1008C000F1041CF020E001C022E0AC01BD0144565F
:1008D000510961097109443853406105710508F4F3
:1008E00023E0AC01BD01485E534061097109483203
:1008F00053426105710508F4B7C080519742A109C0
:10090000B10980399F45A140B10508F46CC023307E
:10091000E1F0213019F0223031F0A1C080E38C0DDC
:100920000E94C303ACC0C701B6012AE030E040E03A
:1009300050E00E945906C62F80E3820F0E94C30335
:1009400080E38C0F0E94C3039AC0C701B60124E65E
:1009500030E040E050E00E9459066B017C0180E3EA
:10096000820F0E94C303C701B6012AE030E040E0D5
:1009700050E00E945906C62F80E3820F0E94C303F5
:1009800080E38C0F0E94C3037AC0C701B60128EE32
:1009900033E040E050E00E9459066B017C0180E3A7
:1009A000820F0E94C303C701B60124E630E040E095
:1009B00050E00E9459066B017C0180E3820F0E9487
:1009C000C303C701B6012AE030E040E050E00E94D6
:1009D0005906C62F80E3820F0E94C30380E38C0F69
:1009E0000E94C3034CC0C701B60120E137E240E0DA
:1009F00050E00E9459066B017C0180E3820F0E9447
:100A0000C303C701B60128EE33E040E050E00E9486
:100A100059066B017C0180E3820F0E94C303C7016A
:100A2000B60124E630E040E050E00E9459066B0138
:100A30007C0180E3820F0E94C303C701B6012AE054
:100A400030E040E050E00E945906C62F80E3820F5C
:100A50000E94C30380E38C0F0E94C30310C08FE089
:100A600091E00E9428040BC080519742A109B1096E
:100A700080399F45A140B10508F4B5CF86CFCF910D
:100A8000FF90EF90DF90CF900895EF92FF920F9339
:100A90001F93CF93DF93E82ED62F142FF22E4817F3
:100AA00010F4E42E182FFD16B8F58D2FDF2DF82E3B
:100AB00033C01E1578F41EC0CE2D6D2F8C2F0E94D2
:100AC000BF03CF5F1C17C8F7DF5FFD1640F11E158F
:100AD00098F7FACFCE2D6D2F8C2F0E94BF03CF5FDA
:100AE0001C17C8F7CE2D6F2D8C2F0E94BF03CF5F30
:100AF0001C17C8F7FD1698F0CD2F6C2F8E2D0E9475
:100B0000BF03CF5FFC16C8F76D2F812F0E94BF0374
:100B1000DF5FFD16C8F703C0002359F2D8CFDF917D
:100B2000CF911F910F91FF90EF900895EF92FF9258
:100B30000F931F93CF93DF930023A1F0E82EE00ED5
:100B4000CFEFC20FDFEFD40F11E0160FFF24F394A5
:100B5000F80E00E00E9445058F2D612F4D2F2C2FA0
:100B6000EF10EECFDF91CF911F910F91FF90EF909B
:100B700008950F931F93CF93DF9360E080E00E946E
:100B80007803C7E3D1E00FE213E089910E944C03A0
:100B9000C017D107D1F7DF91CF911F910F91089521
:100BA00040E060EA76E881E090E00E9432020E9434
:100BB000F2050E945C03789408950E94D00504E039
:100BC00028E243E560E080E00E9496050E94CD01A6
:100BD0002FE784E89EE1215080409040E1F700C07B
:100BE0000000F4CFCF93DF931F92CDB7DEB784B16F
:100BF0008C6284B924988CB580658CBD8DB5898351
:100C00008EB589830F90DF91CF9108958EBD0DB47D
:100C100007FEFDCF08951F920F920FB60F92112479
:100C20008F93EF93FF93E0913701F0E0E858FE4F88
:100C30008081882361F0E091370181E08E0F8093FD
:100C40003701F0E0E858FE4F80818EBD08C08CB5BA
:100C50008F778CBD81E08093000110923701FF9166
:100C6000EF918F910F900FBE0F901F901895A1E2FA
:100C70001A2EAA1BBB1BFD010DC0AA1FBB1FEE1F16
:100C8000FF1FA217B307E407F50720F0A21BB30B61
:100C9000E40BF50B661F771F881F991F1A9469F7DD
:100CA00060957095809590959B01AC01BD01CF0139
:100CB0000895052E97FB1EF400940E94700657FDC0
:100CC00007D00E94370607FC03D04EF40C94700640
:100CD00050954095309521953F4F4F4F5F4F089568
:100CE00090958095709561957F4F8F4F9F4F089598
:040CF000F894FFCFA6
:100CF4000154696D653A2000446174653A2000230B
:020D04002300CA
:00000001FF
