S0190000454550524F4D2041546D656761333238702E73726563E7
S11300000C9434000C9446000C9446000C94460066
S11300100C9446000C9446000C9446000C94460044
S11300200C9446000C9446000C9446000C94460034
S11300300C9446000C9446000C9446000C94460024
S11300400C9446000C9446000C9446000C94460014
S11300500C9446000C9446000C9451000C944600F9
S11300600C9446000C94460011241FBECFEFD8E038
S1130070DEBFCDBF21E0A0E0B1E001C01D92A430FD
S1130080B207E1F70E9403010C9410010C940000E4
S113009070930201609301018093000188E08FBB9B
S11300A008951F920F920FB60F9211248F939F936E
S11300B0809101019091020192BD81BD8091000166
S11300C080BDFB98FA9AF99A9F918F910F900FBE79
S11300D00F901F9018958AB18F708AB98E608AB973
S11300E08BB18F708BB95A9A59985B9A00000000B3
S11300F089B1809303015B980000000080910301A3
S1130100807F809303015B9A0000000089B15B98B3
S113011082958F7090910301892B809303018AB19A
S1130120806F8AB908950E946B008091030188232F
S1130130D4F308955A98611102C0599801C0599A8C
S11301409BB19F709BB99BB1282F207F922B9BB9A9
S11301505B9A0000000000005B98000000009BB167
S11301609F709BB99BB18295807F892B8BB95B9AD9
S11301700000000000005B980E949300089560E076
S11301800E949A0008958BB95B9A00000000000059
S11301905B9808958FEF99EF0197F1F700C0000085
S11301A080E30E94C3008FE496E40197F1F700C056
S11301B0000080E30E94C3008BEC91E00197F1F70B
S11301C000C0000080E30E94C3000E94930080E20C
S11301D00E94C3000E94930088E20E94BF0084E151
S11301E00E94BF008FE00E94BF0086E00E94BF0013
S11301F082E00E94BF0081E00E94BF0008950E9437
S1130200CA00789408950E94FF00C0E0D0E0BE01C7
S11302108FEF0E9448002196C536D105C1F7FFCF64
S1070220F894FFCF7C
S9030000FC
