:100000000C9434000C943E000C943E000C943E0082
:100010000C943E000C943E000C943E000C943E0068
:100020000C943E000C943E000C943E000C943E0058
:100030000C943E000C943E000C943E000C943E0048
:100040000C943E000C943E000C943E000C943E0038
:100050000C943E000C943E000C943E000C943E0028
:100060000C943E000C943E0011241FBECFEFD8E04C
:10007000DEBFCDBF0E94AA000C94B0000C9400001B
:100080002C98000000000000000000002C9A0000E6
:100090000000000000000000089584B18F6184B961
:1000A0000E944000299808952B9A0000000000004B
:1000B000000000002B98000000000000000000007D
:1000C00008952A9A000000000000000000002A980D
:1000D00000000000000000000000089527E030E06C
:1000E00090E061E070E0482F41708695442349F02C
:1000F000AB01022E02C0440F551F0A94E2F7942B65
:1001000009C0AB01022E02C0440F551F0A94E2F74A
:10011000409594232150310930F7892F0895CF93CA
:10012000DF930E946E00D82FC8E08D2F8170D69586
:10013000882311F0289A01C028980E945400C150C9
:10014000A1F70E946100DF91CF9108950E944D00B8
:10015000789408950E94A60087EA0E948F00FFCF3E
:04016000F894FFCF41
:00000001FF
