:100000000C9434000C9451000C9451000C94510049
:100010000C9451000C9451000C9451000C9451001C
:100020000C9451000C9451000C9451000C9451000C
:100030000C9451000C9451000C9451000C945100FC
:100040000C9451000C9451000C94F3000C94C900D2
:100050000C9451000C9451000C9451000C945100DC
:100060000C9451000C94510011241FBECFEFD8E026
:10007000DEBFCDBF11E0A0E0B1E0EAE2F2E002C0F5
:1000800005900D92A231B107D9F721E0A2E1B1E0CC
:1000900001C01D92A633B207E1F70E945C000C94E8
:1000A00013010C940000579A5F9808950E94530022
:1000B0000E947A00789408950E9456000E94A00041
:1000C000813619F0823639F0F9CF5F9880E091E0FF
:1000D0000E94B300F3CF5F9A89E091E00E94B300E1
:1000E000EDCF10921501109214011092130110928D
:1000F000120108951092C50087E68093C400E1ECD8
:10010000F0E0808188698083E2ECF0E080818660A5
:1001100080830E9471000895E0911401EF5FEF70F9
:1001200090911501E917E1F3E0931401F0E0EA5D25
:10013000FE4F8083E1ECF0E080818062808308954F
:1001400090911301809112019817D1F380911301BE
:100150008F5F8F7080931301E0911301F0E0EA5EEE
:10016000FE4F808108950F931F93CF93FC018081F0
:10017000882359F08F01C0E00E948C00CF5FF80106
:10018000EC0FF11D80818111F7CFCF911F910F915D
:1001900008951F920F920FB60F9211248F939F9381
:1001A000EF93FF939091150180911401981769F0D6
:1001B000E0911501EF5FEF70E0931501F0E0EA5D6B
:1001C000FE4F80818093C60005C0E1ECF0E08081A5
:1001D0008F7D8083FF91EF919F918F910F900FBE44
:1001E0000F901F9018951F920F920FB60F92112427
:1001F0008F939F93EF93FF938091C600E09112013C
:10020000EF5FEF70E093120190911301F0E0EA5E6E
:10021000FE4F8083FF91EF919F918F910F900FBEC2
:0A0220000F901F901895F894FFCF7F
:10022A004C45443A204F4646004C45443A204F4EEE
:02023A000000C2
:00000001FF
